:020000040800F2
:10000000C00600200901000889330008932E00086B
:1000100085330008050D0008493A0008000000007B
:10002000000000000000000000000000753400081F
:10003000350E000800000000C533000877340008C2
:100040002301000823010008230100082301000800
:100050002301000823010008390E000823010008CD
:1000600023010008230100082301000823010008E0
:1000700023010008230100082301000823010008D0
:1000800023010008230100082301000823010008C0
:1000900023010008230100082301000823010008B0
:1000A00023010008230100082301000823010008A0
:1000B0002301000879350008C9350008230100082C
:1000C0002301000823010008230100082301000880
:1000D0002301000823010008230100082301000870
:1000E0002301000823010008230100082301000860
:1000F00023010008DFF80CD000F092F90048004717
:10010000B9480008C0060020064880470648004756
:10011000FEE7FEE7FEE7FEE7FEE7FEE7FEE7FEE7B7
:10012000FEE7FEE715350008F500000840EA010388
:100130009B0703D009E008C9121F08C0042AFAD29D
:1001400003E011F8013B00F8013B521EF9D2704761
:10015000D2B201E000F8012B491EFBD27047002209
:10016000F6E710B513460A4604461946FFF7F0FFB6
:10017000204610BD2DE9FE4F804681EA0300C00FE6
:100180000C46009021F0004123F00045B8EB02003E
:10019000A94105D24046214690461C460B460246E0
:1001A00023F00040104347D0270DC7F30A00C3F3E4
:1001B0000A510290401A019040286BDAC3F31300F1
:1001C00040F4801B0098924620B10023D2EB030A32
:1001D00063EB0B0B01985946C0F14002504600F00A
:1001E000A1F806460D4650465946019A00F0A9F876
:1001F00010EB08006141002487EA115284EAE7739A
:100200001A4340D0009A62B3019A012A4FEA07527A
:1002100015DC001B61EB02014FF0004202EA0752BD
:10022000CDE90042001C41F5801132462B4600F01A
:10023000A9F803B0BDE8F08F40462146F9E7001B5E
:1002400061EB0201001C41F5801300185B4120188E
:10025000A2F5001747EB030140EAD570B6196D41CE
:1002600011E06D084FEA360645EAC0754FEA0752BD
:10027000001B61EB0201001C41F5801149084FEAA7
:1002800030000019514132462B4603B0BDE8F04F13
:1002900000F069B80098012240000023D0EB020270
:1002A00063EBE073009821464FEAE074B8EB00007E
:1002B00061EB0401E9E783F000435BE781F0004173
:1002C00058E7000030B5041E71F1000404DB4FF064
:1002D0000044404264EB0101141E73F1000405DB8D
:1002E0001C464FF00043524263EB04038B4208BFAD
:1002F000824230BD30B5041E71F1000404DB4FF0C2
:100300000044404264EB0101141E73F1000405DB5C
:100310001C464FF00043524263EB0403994208BF6E
:10032000904230BD202A04DB203A00FA02F100207E
:1003300070479140C2F1200320FA03F31943904023
:100340007047202A06DBCB17203A41FA02F043EA35
:10035000E07306E041FA02F3D040C2F1200291407E
:1003600008431946704710B5141E73F1000408DAEB
:10037000401C41F1000192185B411A4301D120F069
:10038000010010BD2DE9F04D92469B4611B1B1FA26
:1003900081F202E0B0FA80F220329046FFF7C2FF0D
:1003A00004460F4640EA0A0041EA0B0153465A460A
:1003B000084313D0114653EA010019D0C8F1400296
:1003C000504600F03FF805460E4650465946424614
:1003D000FFF7A8FF084305D0012004E02046394676
:1003E000BDE8F08D0020054346EAE0762C43374314
:1003F0000A986305E40AA0EB08000022FD0A44EA1B
:1004000047540A3002D500200146E9E701051019DA
:100410006941DDE9084500196941BDE8F04DA2E7F1
:10042000064C074D06E0E06840F0010394E8070041
:1004300098471034AC42F6D3FFF760FE6C4F0008CB
:100440008C4F0008202A04DB203A21FA02F0002118
:10045000704721FA02F3D040C2F1200291400843D4
:100460001946704710B50446052C62D2DFE804F047
:100470000315283C4F0000236FF42042062130482A
:1004800001F023FA00236FF4204204212C4801F0EC
:100490001CFA00202B4908704CE04FF400436FF425
:1004A00020420621264801F010FA00236FF4204272
:1004B0000421234801F009FA01202249087039E09B
:1004C0004FF400436FF4204206211D4801F0FDF96E
:1004D0004FF400436FF420420421194801F0F5F96C
:1004E00002201849087025E04FF42043DA43062122
:1004F000134801F0EAF94FF400436FF4204204215D
:100500000F4801F0E2F903200E49087012E04FF4A1
:100510002043DA4306210A4801F0D7F94FF420437B
:10052000DA430421064801F0D0F904200549087097
:1005300000E000BF00BF024801F098F910BD0000C4
:1005400070020020D900002010B5024801F048F8E0
:1005500010BD0000700200202DE9F04105460E4656
:1005600017461C464FF000083A463146284600F030
:10057000CBFB072C7DD2DFE804F07C046DE0FDFCB2
:10058000FB00FE480078C0F34001FC48006861F3BE
:100590005F00FA490978C1F3800140EA0170F74928
:1005A0000978C1F3C00140EA41784346F44A00218A
:1005B000F44801F08AF9F1480079C0F34001EF48AE
:1005C000406861F35F00ED490979C1F3800140EAB9
:1005D0000170EA490979C1F3C00140EA4178434614
:1005E000E74A0221E74801F070F9E448007AC0F3D5
:1005F0004001E248806861F35F00E049097AC1F395
:10060000800140EA0170DD49097AC1F3C00140EA86
:1006100041784346DA4A0421DA4801F056F9D748CE
:10062000007BC0F34001D548C06861F35F00D34947
:10063000097BC1F3800140EA0170D049097BC1F315
:10064000C00140EA41784346CD4A0621CD4801F039
:100650003CF981E2C9480078C007400FC7490978D2
:10066000C1F3400140EAC110C4490978C1F38001D7
:1006700000E070E240EA8160C0490978C1F3C0013E
:1006800040EAC1684346C04A0021BE4801F01DF956
:10069000BA480079C007400FB8490979C1F3400151
:1006A00040EAC110B5490979C1F3800140EA81608F
:1006B000B2490979C1F3C00140EAC1684346B24A70
:1006C0000221B04801F001F9AC48007AC007400FA0
:1006D000AA49097AC1F3400140EAC110A749097A41
:1006E000C1F3800140EA8160A449097AC1F3C001E5
:1006F00040EAC1684346A44A0421A24801F0E5F853
:100700009E48007BC007400F9C49097BC1F3400114
:1007100040EAC1109949097BC1F3800140EA816038
:100720009649097BC1F3C00140EAC1684346964A35
:100730000621944801F0C9F80EE290480078C007FD
:10074000C00D8E490978C1F3400140EA41208B4930
:100750000978C1F3800140EA016088490978C1F352
:10076000C00140EA416843466FF00322002102E0E5
:100770007CE1E0E05AE0834801F0A7F87F48007987
:10078000C007C00D7D490979C1F3400140EA41200D
:100790007A490979C1F3800140EA01607749097912
:1007A000C1F3C00140EA416843466FF003220221D1
:1007B000744801F08AF87148007AC007C00D6F498B
:1007C000097AC1F3400140EA41206C49097AC1F33A
:1007D000800140EA01606949097AC1F3C00140EA39
:1007E000416843466FF003220421664801F06DF82A
:1007F0006248007BC007C00D6049097BC1F340011E
:1008000040EA41205D49097BC1F3800140EA016073
:100810005A49097BC1F3C00140EA416843466FF081
:1008200003220621574801F050F895E1534800781B
:10083000C007400D51490978C1F3C00140EA415851
:100840004346524A00214F4801F03FF84B48007898
:10085000C0F34000C00249490978C1F3800140EA71
:10086000015843464A4A0021464801F02EF84348C1
:100870000079C007400D41490979C1F3C00140EA40
:1008800041584346414A02213E4801F01EF83B4888
:100890000079C0F34000C00238490979C1F38001F2
:1008A00040EA015843463A4A0221364801F00DF821
:1008B0003248007AC007400D3049097AC1F3C001BF
:1008C00040EA41584346314A04212E4800F0FDFFDA
:1008D0002A48007AC0F34000C0022849097AC1F3CF
:1008E000800140EA01584346294A0421254800F086
:1008F000ECFF2248007BC007400D2049097BC1F373
:10090000C00140EA41584346204A06211D4800F0F4
:10091000DCFF1A48007BC0F34000C0021749097B86
:10092000C1F3800140EA01584346194A062115489F
:1009300000F0CBFF10E111480078C0F34000400305
:100940000E490978C1F3800140EA814843466FF4BB
:10095000842200210B4800F0B8FF08480078C00747
:10096000C00C06490978C1F3C00140EAC1484346BA
:100970006FF40122002103480CE00000AC020020CB
:10098000FCFFFFCF700200207BFFFFF3FFFBDFFFC8
:10099000FFF7EFFF00F099FF72480079C0F34000C5
:1009A000400370490979C1F3800140EA8148434618
:1009B0006FF4842202216C4800F087FF69480079B7
:1009C000C007C00C67490979C1F3C00140EAC148BA
:1009D00043466FF401220221634800F076FF61482C
:1009E000007AC0F3400040035E49097AC1F38001F8
:1009F00040EA814843466FF4842204215A4800F0BB
:100A000064FF5848007AC007C00C5649097AC1F300
:100A1000C00140EAC14843466FF401220421524814
:100A200000F053FF4F48007BC0F3400040034D49A6
:100A3000097BC1F3800140EA814843466FF4842278
:100A40000621494800F041FF4648007BC007C00C22
:100A50004449097BC1F3C00140EAC14843466FF4F1
:100A600001220621404800F030FF75E03D48007843
:100A7000C007400C3B490978C1F3400140EAC1304E
:100A800038490978C1F3800140EA41403549097885
:100A9000C1F3C00140EA014843466FF470320021BF
:100AA000314800F012FF2F480079C007400C2D4953
:100AB0000979C1F3400140EAC1302A490979C1F3FB
:100AC000800140EA414027490979C1F3C00140EA69
:100AD000014843466FF470320221234800F0F5FECE
:100AE0002048007AC007400C1E49097AC1F3400132
:100AF00040EAC1301B49097AC1F3800140EA414014
:100B00001849097AC1F3C00140EA014843466FF42D
:100B100070320421144800F0D8FE1248007BC00750
:100B2000400C1049097BC1F3400140EAC1300D4936
:100B3000097BC1F3800140EA41400A49097BC1F3C6
:100B4000C00140EA014843466FF47032062106486E
:100B500000F0BBFE00E000BF00BF034800F086FECF
:100B6000BDE8F081AC0200207002002070B505469F
:100B7000012408E0234600221146284600F0AEF882
:100B80006D1C601CC4B2287808B1012000E0002070
:100B9000062C01DC012100E0002108400028E9D1F9
:100BA00070BD000010B5124812490860002048606E
:100BB0004FF470110F4881600C21C1604021016128
:100BC000002141614FF4A05181610021C1614021A8
:100BD0000162002181624FF48041C1628021016382
:100BE00002F05AF9034800F03FFDFFF7ADFC10BDDD
:100BF00000240040700200202DE9FC47074688468B
:100C000091464FF0000A0025002600200090019038
:100C10000FB9BDE8FC873C46002602E0701CC6B256
:100C2000641C20780028F9D13C466846FFF79EFFF7
:100C3000484600F0B1FB4FF0000A48E0002540E0D4
:100C4000681C90FBF6F106FB1100205C8DF800009B
:100C5000A81C90FBF6F106FB1100205C8DF801004A
:100C6000E81C90FBF6F106FB1100205C8DF80200F9
:100C7000281D90FBF6F106FB1100205C8DF80300A7
:100C8000681D90FBF6F106FB1100205C8DF8040056
:100C9000A81D90FBF6F106FB1100205C8DF8050005
:100CA000FFF752FC6846FFF761FF0B48007818B168
:100CB000002009490870ACE7484600F06DFB681C4D
:100CC000C5B2B542BCDB0AF1010000F0FF0AC24523
:100CD000B4DB00BF9DE70000D80000202DE9F04103
:100CE00004460D4616461F463B46324629462046D8
:100CF000FFF732FC02480078FFF7B4FBBDE8F08153
:100D0000D900002000BFFEE7F0B50B4614460021D5
:100D1000002500220678342E49D00FDCA6F12006EB
:100D2000142E4FD2DFE806F01F4E4E4E4E394E4E77
:100D30002426214E4E314E343F4041426D2E1BD071
:100D400008DCA6F13506052E3CD2DFE806F031328C
:100D5000333435006E2E12D0B02E1BD0B52E11D0EC
:100D6000FF2E2FD11CE0002143E04AF2DD0140E0DC
:100D700028213EE011213CE04BF2102139E042F203
:100D8000102136E046F2840133E04FF4204130E098
:100D9000C0212EE04FF46C412BE04FF4334128E0AA
:100DA0004FF6DD7125E000BF00BF00BF00BF00BFF0
:100DB00000BF00BF00BF00BF0678303E1A4F37F8B3
:100DC000161016E006785B2E07DA0678402E04DD52
:100DD0000678413E154F37F8161006787B2E07DA55
:100DE0000678602E04DD0678613E104F37F8161045
:100DF00000BF00BF012B01D141F00201012C01D144
:100E000041F020010C2500220AE041FA05F606F027
:100E10000F06074F47F822602E1FF5B2561CF2B29C
:100E2000042AF2DBF0BD0000344F0008004F000838
:100E3000AC0200207047000018E00F48006840F046
:100E400001000D4908600D48006800F4005068B1C9
:100E50000B48006818B901200949086006E00848F5
:100E60000068012802D10020054908600248006896
:100E70000028E2D17047000014040140100802402D
:100E8000540000207047000038B5024600230020BF
:100E9000009000BF92F84800012801D1022038BD1F
:100EA000012082F8480000BF4868072812D2106865
:100EB000006C0C79641E04EB84051F24AC40A04335
:100EC0000D796D1E05EB85050C68AC402043146858
:100ED000206453E048680D2812D21068C06B0C796A
:100EE000E41F04EB84051F24AC40A0430D79ED1FE3
:100EF00005EB85050C68AC4020431468E0633DE0D9
:100F00004868132812D21068806B0C790D3C04EBF2
:100F100084051F24AC40A0430D790D3D05EB8505EC
:100F20000C68AC4020431468A06327E04868192887
:100F300012D21068406B0C79133C04EB84051F241B
:100F4000AC40A0430D79133D05EB85050C68AC4022
:100F500020431468606311E01068006B0C79193C41
:100F600004EB84051F24AC40A0430D79193D05EB2B
:100F700085050C68AC4020431468206308680A2883
:100F800010D2106840690C7804EB44050724AC408B
:100F9000A0430D7805EB45058C68AC4020431468F0
:100FA00060612CE00868142812D2106800690C787F
:100FB0000A3C04EB44050724AC40A0430D780A3DED
:100FC00005EB45058C68AC4020431468206116E0B1
:100FD00008681A2812D81068C0680C78143C04EB12
:100FE00044050724AC40A0430D78143D05EB4505AE
:100FF0008C68AC4020431468E06000E000BF0868E3
:10100000102802D0086811281DD11248006800F489
:101010000000C0B90F48006840F400000D4C20608B
:10102000086810280FD10C4800680C4CB0FBF4F095
:1010300000EB80004000009002E00098401E00900D
:1010400000980028F9D100BF002082F8480000BFB6
:10105000184624E704270140E000002040420F002A
:10106000F8B504460027002600250CB90120F8BD7C
:10107000206910B1E06A00B100BF606B102800D099
:1010800000BFE06CA0B90020206584F8480000BFD4
:101090006148006840F001005F4908600846006848
:1010A00000F00100009000BF00BF204600F0BEF835
:1010B000E06C00F01000002874D1E06C20F488503F
:1010C00040F00200E0645548006820F44030616858
:1010D0000843524908606169E06808434FF40072B0
:1010E00092FAA2F2B2FA82F2E16B91400843216ACD
:1010F0000843022292FAA2F2B2FA82F2616A9140A5
:1011000008430543606B102803D0D4E90D01084360
:10111000054320680068C0F3801090BBA0690543B8
:10112000E169A06808432169B1F5807F02D0216997
:10113000012902D14FF4807100E0002108430643E9
:10114000E06A012816D1606A60B9206B401E4FF436
:10115000604191FAA1F1B1FA81F1884040F4006058
:10116000064307E0E06C40F02000E064206D40F0B2
:101170000100206520684068294908403043216803
:1011800048602068806827490840284321688860B3
:101190002069B0F5807F02D02069012803D14FF487
:1011A000807001E035E00020B0F5807F10D120682C
:1011B000006B20F0F871A06A401E4FF0F87292FAAE
:1011C000A2F2B2FA82F2904001432068016305E086
:1011D0002068006B20F0F870216808632068806840
:1011E00011490840A84208D100202065E06C20F099
:1011F000020040F00100E0640CE0E06C20F002002E
:1012000040F01000E064206D40F0010020650127EF
:1012100000E0012738462AE7203802400427014031
:10122000FF16FCFC8DF1FFC0FEFF80BF10B586B03D
:101230000446142101A8FEF792FF1649206888424F
:1012400025D100BF1448006840F4007012490860BE
:101250000846006800F40070009000BF00BF00BFA7
:10126000081F006840F00100091F08600846006878
:1012700000F00100009000BF00BF1020019003208B
:1012800002900020039001A9044800F093F806B0F2
:1012900010BD000000240140203802400000024040
:1012A00030B50346002400BF5879012801D102203F
:1012B00030BD0120587100BF02201871D1E900052E
:1012C000284304431868006840F6FE759540A8431B
:1012D00004FA02F528431D68286018680068C025D4
:1012E0009540A8431D6828600120187100BF0020A8
:1012F000587100BF00BFDBE710B504460CB90120F0
:1013000010BD207920B900206071204600F008F857
:101310000220207100202061012020710020EFE7D1
:1013200010B586B00446142101A8FEF718FF17492E
:101330002068884227D100BF1548006840F000505F
:10134000134908600846006800F00050009000BF94
:1013500000BF00BF0E480838006840F001000C498B
:10136000083908600846006800F00100009000BFDE
:1013700000BF10200190032002900020039001A9DB
:10138000044800F017F806B010BD000000740040DB
:10139000243802400000024031B5002400F0F2F889
:1013A000044600BF00F0EEF8001B00998842F9D314
:1013B00038BD000078B50346002200240020CAE0B2
:1013C000012696400D6805EA0604002C71D04D6890
:1013D000022D02D04D68122D13D1D60803F120053D
:1013E00055F826005507EE0E0F25B540A8435607C1
:1013F000F60E0D69B5402843D60803F1200545F8DF
:101400002600186856000325B540A8430D7905F05D
:1014100003055600B540284318604D68012D08D0DB
:101420004D68022D05D04D68112D02D04D68122D4A
:1014300013D1986856000325B540A8435600CD68DF
:10144000B54028439860586801259540A8430D7918
:10145000C5F30015954028435860D8685600032509
:10146000B540A84356008D68B5402843D8604D6804
:1014700005F08055B5F1805F6CD100BF394D2D6806
:1014800045F00105374E356035462D6805F00105FC
:10149000009500BF00BF344D960855F8260095070B
:1014A0002E0F0F25B540A843304DAB4202D1002589
:1014B00015E04FE02E4DAB4201D101250FE02D4D3F
:1014C000AB4201D102250AE02B4DAB4201D10325ED
:1014D00005E02A4DAB4201D1042500E00525960721
:1014E000360FB5402843204D960845F82600244D78
:1014F0002868A0434D6805F48035B5F5803F00D1DC
:1015000020431F4D28602D1D2868A0434D6805F419
:101510000035B5F5003F00D12043194D2D1D286041
:101520002D1D2868A0434D6805F48015B5F5801F72
:1015300000D12043124D083528602D1D2868A04396
:101540004D6805F40015B5F5001F00D120430C4D82
:101550000C352860521C0D68D540002D7FF430AF4B
:1015600078BD000020380240080001400000024021
:101570000004024000080240000C0240001002403B
:10158000000401400148006870470000DC000020B2
:1015900002480068401C014908607047DC000020D8
:1015A00010B5032000F05CFA002000F005F800F010
:1015B000D9F9002010BD000070B504460748006846
:1015C0004FF47A71B0FBF1F5284601F03DFA0022A4
:1015D0002146501E00F005FA002070BDE0000020FA
:1015E00070B504460026002594F83500012803D084
:1015F00094F83500022835D100BF94F83400012852
:1016000001D1022070BD012084F8340000BF022007
:1016100084F83500FFF7B6FF06460EE0FFF7B2FF8D
:10162000801BB0F57A7F08D90220A06300BF00209C
:1016300084F8340000BF0320E4E720688068C0F32A
:1016400080000028EAD1002505E000212068143040
:1016500040F825106D1C0F2DF7D9204600F006F933
:101660000020CFE70120CDE770B504460026002515
:101670000CB9012070BD94F8350028B9002084F819
:101680003400204600F078F8022084F83500206805
:10169000006820F0010021680860002506E00021B4
:1016A0002068143040F82510681CC5B20F2DF6D9FB
:1016B0002068806840F0040021688860D4E9010156
:1016C0000843A16A0843E16A0843E1690843216AC3
:1016D0000843A1690843616A084321684968254AAB
:1016E0001140084321684860204601F067FCD4E9B6
:1016F0000301084361690843216B084321680968B5
:1017000021F0FE010843216808602068006840F06D
:10171000010021680860FFF735FF064609E0FFF782
:1017200031FF801BB0F57A7F03D90820A063032026
:10173000A0E72068806800F001000028EFD0FFF7E4
:1017400021FF064609E0FFF71DFF801BB0F57A7FF9
:1017500003D91020A06303208CE720688068C0F3C1
:1017600000100028EFD00020A063012084F835008D
:1017700000207FE70F0000FC10B586B0044614215E
:1017800001A8FEF7ECFC34492068884261D100BF13
:101790003248006840F4007030490860084600682C
:1017A00000F40070009000BF00BF00BF2B48083855
:1017B000006840F0040029490839086008460068BC
:1017C00000F00400009000BF00BF00BF08460068A2
:1017D00040F0010008600846006800F00100009039
:1017E00000BF00BF00BF0846006840F0020008606C
:1017F0000846006800F00200009000BF00BF40F6FD
:10180000CF700190022002900020039004900B20E2
:10181000059001A91248FFF7CDFD48F20E70019026
:10182000022002900020039004900B20059001A953
:101830000C48FFF7BFFD4FF6387001900220029070
:101840000020039004900B20059001A90648FFF7A3
:10185000B1FD06B010BD0000002400402438024055
:1018600000080240000002400004024070B5044637
:10187000002508202168C8602068806840F00400C6
:1018800021688860FFF77EFE05460EE0FFF77AFECE
:10189000401BB0F57A7F08D90420A06300BF002068
:1018A00084F8340000BF032070BD20688068C0F356
:1018B000C0000028EAD0012084F8350000BF0020D5
:1018C00084F8340000BF00BFEEE72DE9F041044684
:1018D0000D4616461F464FF0000894F835000128C3
:1018E00003D094F83500022839D194F83500012846
:1018F00028D100BF94F83400012802D10220BDE8AD
:10190000F081012084F8340000BF022084F8350003
:10191000FFF738FE80460FE0FFF734FEA0EB08002B
:10192000B0F57A7F08D90220A06300BF002084F8B8
:10193000340000BF0320E2E720688068C0F3800025
:101940000028E9D12068143050F82500F14388437D
:1019500038432168143141F825000020CFE70120E9
:10196000CDE7000008B500BF1648006840F0004011
:10197000144908600846006800F00040009000BF6D
:1019800000BF00BF081F006840F00100091F086089
:101990000846006800F00100009000BF00BF00BFD3
:1019A000081D006840F08050091D08600846006866
:1019B00000F08050009000BF00BF072000F050F8FA
:1019C00008BD00002438024000BF00F01F020121C2
:1019D00091404209920002F1E022C2F8001100BFDA
:1019E00070472DE9F05F80460D461646002701F04E
:1019F000CDFC074639462A46334601F00700C0F1C0
:101A0000070ABAF1040F02D94FF0040A01E0C0F14D
:101A1000070AD14600F1040ABAF1070F02D24FF0CB
:101A2000000A01E0A0F1030AD4464FF0010A0AFAC5
:101A300009FAAAF1010A0AEA020A0AFA0CFA4FF0B4
:101A4000010B0BFA0CFBABF1010B0BEA030B4AEA9F
:101A50000B042146404601F0A1FCBDE8F09F0000C8
:101A600000BF00F00702064B19684FF6FF0319404C
:101A7000044B0B4343EA0221014B196000BF70473E
:101A80000CED00E00000FA05F8B50446002600253C
:101A9000207800F0010020B9207800F00200022830
:101AA0007ED1207800F0010000B100BF207800F066
:101AB0000200022800D100BF00277148006800F032
:101AC000805070B900BF6E48006840F080506C498B
:101AD00008600846006800F08050009000BF00BF1A
:101AE00001276848006800F48070B0B96548006854
:101AF00040F4807063490860FFF744FD064606E045
:101B0000FFF740FD801B642801D90320F8BD5D4824
:101B1000006800F480700028F2D05948243800682A
:101B200000F0C045606800F0C040A84204D1A06841
:101B300000F0C040A8420DD0606800F44030B0F51D
:101B4000403F07D14E482438006800F4003008B107
:101B50000120DBE74A481030006800F44035002DD2
:101B600062D0606800F44030A84203D0207800F0D2
:101B7000010048B9A06800F44030A84254D0207851
:101B800000F0020002284FD13D481030006820F4D8
:101B900040350120C10591FAA1F1B1FA81F100E0CF
:101BA0006BE0394A02EB8101C1F8800600204FF456
:101BB000000191FAA1F1B1FA81F102EB8101C1F8C2
:101BC00080062F481030056005F4807060B3FFF781
:101BD000D9FC064608E0FFF7D5FC801B41F28831AE
:101BE000884201D9032091E74020C10091FAA1F178
:101BF000B1FA81F108430121B1EB601F03D1204804
:101C00002438006802E01E48103000684021CA00F5
:101C100092FAA2F2B2FA82F2114301F01F020121FC
:101C2000914008400028D6D000BF00BF606800F493
:101C30004030B0F5403F0BD111482438006820F007
:101C4000C040616801F0C04108430D492439086073
:101C500000BF0B4810300068616801F44031084350
:101C600007491031086000BF012F05D10448006802
:101C700020F080500249086000BF002046E70000C5
:101C800024380240007000400000474270B504460E
:101C90000D460026B348006800F00100A84218D2A3
:101CA00000BF012D05D1AF48006840F00400AD49E8
:101CB0000860AC48006820F001002843A94908608A
:101CC00000BF0846006800F00100A84201D00120D2
:101CD00070BD207800F00200022807D1A2480068F9
:101CE00020F0F000A16808439F490860207800F0C8
:101CF000010000287BD06068022821D12020010348
:101D000091FAA1F1B1FA81F108430121B1EB601F11
:101D100003D195480838006802E093482C300068E9
:101D200020210A0392FAA2F2B2FA82F2114301F0E0
:101D30001F0201219140084000286CD10120C7E713
:101D40006068032820D12020010591FAA1F1B1FAA1
:101D500081F108430121B1EB601F03D182480838AB
:101D6000006802E080482C30006820210A0592FAC1
:101D7000A2F2B2FA82F2114301F01F020121914056
:101D80000840A8BB0120A3E76068012820D12020DB
:101D9000022191FAA1F1B1FA81F108430121B1EBDD
:101DA000601F03D170480838006802E06E482C308C
:101DB00000682021022292FAA2F2B2FA82F21143C2
:101DC00001F01F0201219140084088B901207FE7FE
:101DD0002020010191FAA1F1B1FA81F1084301211A
:101DE000B1EB601F05D160480838006804E069E085
:101DF00011E05D482C30006820210A0192FAA2F21D
:101E0000B2FA82F2114301F01F0201219140084011
:101E100008B901205CE75448006820F003006168BD
:101E2000084351490860FFF7ADFB06466068022889
:101E300010D108E0FFF7A6FB801B41F288318842F1
:101E400001D9032044E74848006800F00C00082846
:101E5000F0D137E06068032810D108E0FFF792FB6B
:101E6000801B41F28831884201D9032030E73E4887
:101E7000006800F00C000C28F0D123E06068012815
:101E800010D108E0FFF77EFB801B41F288318842C9
:101E900001D903201CE73448006800F00C00042836
:101EA000F0D10FE008E0FFF76DFB801B41F28831B5
:101EB000884201D903200BE72B48006800F00C0092
:101EC0000028F0D12748006800F00100A84218D986
:101ED00000BF012D05D12348006840F004002149CE
:101EE00008602048006820F0010028431D49086070
:101EF00000BF0846006800F00100A84201D00120A0
:101F0000E6E6207800F00400042807D116480068AF
:101F100020F4E060E168084313490860207800F08D
:101F20000800082808D11048006820F46050216992
:101F300040EAC1000C49086000F04EF80A490968FF
:101F400001F0F001F02292FAA2F2B2FA82F2D1404C
:101F5000064A515CC840064908600020FFF72CFB88
:101F60000020B5E6003C024008380240514F00080E
:101F7000E00000200148006870470000E0000020F9
:101F800000B5FFF7F7FF0749096801F4E0614FF476
:101F9000E06292FAA2F2B2FA82F2D140024A515CB5
:101FA000C84000BD08380240614F000800B5FFF787
:101FB000E1FF0749096801F460514FF4605292FA59
:101FC000A2F2B2FA82F2D140024A515CC84000BD8E
:101FD00008380240614F0008F0B5002100230024BA
:101FE000002200250020254E316801F00C067EB34A
:101FF000042E04D0082E04D00C2E2AD103E0204851
:102000003AE0204838E001F470164FF4701797FA60
:10201000A7F7B7FA87F7FE401B4FBB5D01F44006F8
:102020004FF4400797FAA7F7B7FA87F7FE40741CFA
:10203000124E366806F4803626B1124E5E43B6FB69
:10204000F4F203E00E4E5E43B6FBF4F2104613E0EA
:1020500000E000BF094E361F366806F460464FF4B4
:10206000604797FAA7F7B7FA87F726FA07F56E1CC5
:102070000127B740F80300BF00BFF0BD0838024099
:102080000024F40000127A00484F0008F8B5044616
:102090000025207800F00100002879D0F74800687A
:1020A00000F00C0008280CD0F448006800F00C0088
:1020B0000C282BD1F148006800F48030B0F5803F47
:1020C00024D12020010391FAA1F1B1FA81F1084352
:1020D0000121B1EB601F03D1E8480838006802E035
:1020E000E6482C30006820210A0392FAA2F2B2FAE4
:1020F00082F2114301F01F020121914008400028A3
:10210000CBD06068002843D10120F8BD00BF6068D3
:10211000012808D1D9480838006840F48030D749F0
:10212000083908602DE0606868B9D448083800684C
:1021300020F48030D149083908600846006820F44E
:10214000802008601DE0606805280DD1CB48083864
:10215000006840F48020C9490839086008460068D2
:1021600040F4803008600CE0C4480838006820F46F
:102170008030C249083908600846006820F4802091
:10218000086000BF606860B3FFF7FCF9054607E030
:1021900052E0FFF7F7F9401B642801D90320B4E7A8
:1021A0002020010391FAA1F1B1FA81F10843012144
:1021B000B1EB601F03D1B1480838006802E0AF48B6
:1021C0002C30006820210A0392FAA2F2B2FA82F2BD
:1021D000114301F01F020121914008400028D8D08E
:1021E0002AE0FFF7CFF9054606E0FFF7CBF9401BE1
:1021F000642801D9032088E72020010391FAA1F186
:10220000B1FA81F108430121B1EB601F03D19B4872
:102210000838006802E099482C30006820210A0341
:1022200092FAA2F2B2FA82F2114301F01F020121E6
:10223000914008400028D8D1207800F00200022800
:1022400045D18E48006800F00C0004280AD08B4865
:10225000006800F00C000C283BD18848006800F4AE
:102260008030A8BB2020022191FAA1F1B1FA81F1BE
:1022700008430121B1EB601F03D180480838006892
:1022800002E07E482C3000682021022292FAA2F25D
:10229000B2FA82F2114301F01F020121914008407D
:1022A00020B1E068012801D001202EE77348001F0B
:1022B000006820F4F8504FF4F85292FAA2F2B2FA01
:1022C00082F22169914008436C49091F08607DE052
:1022D000FFE7E068F0B3012090FAA0F1B1FA81F1D4
:1022E000674A42F82100FFF74DF9054606E0FFF77F
:1022F00049F9401B022801D9032006E720200221CA
:1023000091FAA1F1B1FA81F108430121B1EB601F0B
:1023100003D15A480838006802E058482C30006859
:102320002021022292FAA2F2B2FA82F2114301F0C3
:102330001F020121914008400028D8D04F48001FBB
:10234000006820F4F8504FF4F85292FAA2F2B2FA70
:1023500082F200E006E02169914008434749091FE5
:10236000086033E00020012191FAA1F1B1FA81F176
:10237000434A42F82100FFF705F9054606E0FFF75A
:1023800001F9401B022801D90320BEE620200221CA
:1023900091FAA1F1B1FA81F108430121B1EB601F7B
:1023A00003D136480838006802E034482C30006811
:1023B0002021022292FAA2F2B2FA82F2114301F033
:1023C0001F020121914008400028D8D1207800F058
:1023D0001000102873D12948006800F00C00002874
:1023E0006ED12020010191FAA1F1B1FA81F10843E7
:1023F0000121B1EB601F03D120480838006802E0DA
:102400001E482C30006820210A0192FAA2F2B2FA8A
:1024100082F2114301F01F0201219140084018B1DE
:10242000A06908B9012070E61449091F206A0968EB
:1024300001F46041884225D9206A00F0C5FF08B147
:10244000012062E60D48001F006820F46040216A08
:1024500008430A49091F08600846006820F07F40C9
:102460004FF07F4292FAA2F2B2FA82F2E169914011
:1024700008430249091F086023E0000008380240B1
:1024800000004742FC48006820F46040216A08438D
:10249000F94908600846006820F07F404FF07F420D
:1024A00092FAA2F2B2FA82F2E16991400843F2494B
:1024B0000860206A00F088FF18B1012025E6A5E039
:1024C0001FE04FF4604191FAA1F1B1FA81F1206A65
:1024D000C840401C01218140C803E749091D096823
:1024E00001F0F001F02292FAA2F2B2FA82F2D140A7
:1024F000E24A515CC840E24908600020FFF75CF8FE
:1025000084E0A069F0B30120010291FAA1F1B1FACF
:1025100081F1DC4A42F82100FFF734F8054606E075
:10252000FFF730F8401B022801D90320EDE52020F9
:10253000010191FAA1F1B1FA81F108430121B1EB56
:10254000601F03D1CC48001F006802E0CA48303049
:10255000006820210A0192FAA2F2B2FA82F2114333
:1025600001F01F020121914008400028D8D0C24844
:10257000006820F46040216A0843BF4908600846AB
:10258000006800E00DE020F07F404FF07F4292FABB
:10259000A2F2B2FA82F2E16991400843B6490860BA
:1025A00034E000204FF4807191FAA1F1B1FA81F189
:1025B000B44A42F82100FEF7E5FF054606E0FEF7C3
:1025C000E1FF401B022801D903209EE520200101E4
:1025D00091FAA1F1B1FA81F108430121B1EB601F39
:1025E00003D1A548001F006802E0A348303000680E
:1025F00020210A0192FAA2F2B2FA82F2114301F00A
:102600001F020121914008400028D8D1207800F015
:10261000080008286ED16069A8B3012090FAA0F1E3
:10262000B1FA81F1974A02EB8101C1F88006FEF709
:10263000A9FF054606E0FEF7A5FF401B022801D9C9
:10264000032062E54020022191FAA1F1B1FA81F163
:1026500008430121B1EB601F03D18748001F0068C8
:1026600002E08548303000684021022292FAA2F24E
:10267000B2FA82F2114301F01F0201219140084099
:102680000028D8D036E0FFE70021012090FAA0F022
:10269000B0FA80F07B4A02EB8000C0F88016FEF7AB
:1026A00071FF054606E0FEF76DFF401B022801D9C9
:1026B00003202AE54020022191FAA1F1B1FA81F12B
:1026C00008430121B1EB601F03D16B48001F006874
:1026D00002E06948303000684021022292FAA2F2FA
:1026E000B2FA82F2114301F01F0201219140084029
:1026F0000028D8D1207800F00400042875D10026E5
:102700005D482030006800F0805080B900BF5A4812
:102710002030006840F0805057492031086008465A
:10272000006800F08050009000BF00BF01265648AE
:10273000006800F48070B0B95348006840F48070BD
:1027400051490860FEF71EFF054606E0FEF71AFF36
:10275000401B642801D90320D7E44B48006800F4EB
:1027600080700028F2D000BFA068012808D142483C
:102770003030006840F480703F49303108602DE00F
:10278000A06868B93C483030006820F480703A494D
:10279000303108600846006820F4806008601DE061
:1027A000A06805280DD134483030006840F48060BE
:1027B0003149303108600846006840F48070086094
:1027C0000CE02D483030006820F480702A49303108
:1027D00008600846006820F48060086000BFA068B8
:1027E00070B3FEF7CFFE054609E06AE0FEF7CAFEC9
:1027F000401B41F28831884201D9032085E4402002
:10280000C10091FAA1F1B1FA81F108430121B1EBC4
:10281000601F03D11848001F006802E016483030DE
:1028200000684021CA0092FAA2F2B2FA82F2114381
:1028300001F01F020121914008400028D6D035E068
:10284000FEF7A0FE054608E0FEF79CFE401B41F2A5
:102850008831884201D9032057E44020C10091FA11
:10286000A1F1B1FA81F108430121B1EB601F0DD153
:102870000148001F00680BE004380240514F000877
:10288000E000002000004742007000406C480068F3
:102890004021CA0092FAA2F2B2FA82F2114301F088
:1028A0001F020121914008400028CDD1012E07D1FF
:1028B00063481038006820F0805061491039086082
:1028C00000BF606AF0B35E482C38006800F00C006E
:1028D0000C287AD0606A022879D100204FF08071EC
:1028E00091FAA1F1B1FA81F1564A42F82100FEF7BE
:1028F00049FE054606E0FEF745FE401B022801D9C9
:10290000032002E42020010591FAA1F1B1FA81F13E
:1029100008430121B1EB601F03D1494834380068F6
:1029200001E04748006820210A0592FAA2F2B2FAB3
:1029300082F2114301F01F0201219140084000285A
:10294000D9D100E07AE0D4E90A010843216B0843B9
:102950003B492C39096821F47D01084338492C3959
:1029600008600120010691FAA1F1B1FA81F1354A1E
:1029700042F82100FEF706FE054606E0FEF702FEDD
:10298000401B022801D9032009E42020010591FA07
:10299000A1F1B1FA81F108430121B1EB601F03D12C
:1029A00027483438006801E02548006820210A05DE
:1029B00092FAA2F2B2FA82F2114301F01F0201214F
:1029C000914008400028D9D038E035E0FFE70021E9
:1029D0004FF0807090FAA0F0B0FA80F0194A42F8F7
:1029E0002010FEF7CFFD054606E0FEF7CBFD401BAD
:1029F000022801D9032058E42020010591FAA1F111
:102A0000B1FA81F108430121B1EB601F03D10C48F9
:102A10003438006801E00A48006820210A0592FA6B
:102A2000A2F2B2FA82F2114301F01F020121914099
:102A300008400028D9D101E0012036E4002034E428
:102A4000343802400000474270B504462546681EEF
:102A5000B0F1807F01D301200FE0681E4FF0E0212C
:102A600048610F214FF0FF3000F098FC00204FF03C
:102A7000E021886107200861002070BD024600BF88
:102A800092F83400012801D102207047012082F819
:102A9000340000BF022082F835001068406820F042
:102AA000700013685860106840680B68184313681A
:102AB00058601068806820F0800013689860106883
:102AC00080684B68184313689860012082F83500CD
:102AD00000BF002082F8340000BF00BFD5E710B56A
:102AE00004460CB9012010BD94F8350028B9002027
:102AF00084F83400204600F00DF8022084F83500F8
:102B0000211D206800F07AFD012084F835000020A6
:102B1000E9E7000010B586B00446142101A8FDF7CE
:102B20001EFB2068B0F1804F2CD100BF2848006800
:102B300040F00100264908600846006800F00100E6
:102B4000009000BF00BF00BF21480838006840F077
:102B500001001F49083908600846006800F00100BC
:102B6000009000BF00BF20200190022002900120B1
:102B70000390032004900120059001A91548FEF759
:102B800019FC23E01449206888420DD100BF104889
:102B9000006840F002000E4908600846006800F036
:102BA0000200009000BF11E00C49206888420DD15E
:102BB00000BF0748006840F0040005490860084667
:102BC000006800F00400009000BF00BF06B010BD18
:102BD0002438024000000240000400400008004089
:102BE0002DE9F04104460D46002600BF94F834005C
:102BF000012802D10220BDE8F081012084F83400D0
:102C000000BF022084F835002068866826F0770629
:102C100026F47F4620688660286850283BD00CDC6C
:102C2000202860D004DC002853D0102865D155E05E
:102C300030285DD0402860D141E0602835D0702830
:102C40000DD0B0F5805F03D0B0F5005F55D115E031
:102C50002068806820F00700216888604EE0D5E990
:102C600002136A68206800F001FD2068866826F07B
:102C7000770646F07706206886603FE0D5E90213C4
:102C80006A68206800F0F2FC2068806840F48040A8
:102C90002168886032E0EA686968206800F0FCFC1E
:102CA0005021206800F0EEFC28E0EA68696820689E
:102CB00000F007FD6021206800F0E4FC1EE0EA68F7
:102CC0006968206800F0E8FC4021206800F0DAFC28
:102CD00014E00021206800F0D5FC0FE010212068EE
:102CE00000F0D0FC0AE02021206800F0CBFC05E0D9
:102CF0003021206800F0C6FC00E000BF00BF0120CA
:102D000084F8350000BF002084F8340000BF00BF05
:102D100071E710B504460CB9012010BDA06900B1DF
:102D200000E000BF94F8390028B9002084F838008A
:102D3000204600F025F8022084F839002068C06899
:102D400020F400502168C860204600F0D1FC2068C3
:102D5000006920F49040216808612068406920F0F3
:102D60002A00216848612068C06840F4005021684A
:102D7000C8600020E063012084F839000020CCE71F
:102D800010B586B00446142101A8FDF7E8F91C49E6
:102D90002068884231D100BF1A48006840F4804062
:102DA000184908600846006800F48040009000BFA1
:102DB00000BF00BF081F006840F00200091F086044
:102DC0000846006800F00200009000BF00BFC0206D
:102DD000019002200290012003900320049007201C
:102DE000059001A90848FEF7E5FA002211462520C2
:102DF000FEF7F7FD2520FEF7E7FD06B010BD000049
:102E000000380140203802400004024030B503463B
:102E1000002493F83940012C01D0122C37D101B194
:102E20000AB9012030BD00BF93F83800012801D154
:102E30000220F7E7012083F8380000BF99629A85E5
:102E4000DA850020D86393F83900122803D13220A4
:102E500083F8390002E0222083F8390000BF002007
:102E600083F8380000BF1868C06840F480701D689F
:102E7000E8601868406940F001001D6868611868E2
:102E8000C06840F020001D68E8600020CAE702200A
:102E9000C8E700BFFEE7000010B596B00446142155
:102EA00011A8FDF75CF9342104A8FDF758F90020BA
:102EB00001900290039000BF3C48006840F08050B1
:102EC0003A4908600846006800F08050009000BF52
:102ED00000BF0420049000200D900120069004A85B
:102EE000FFF7D4F808B100BFFEE70120019000040D
:102EF000029001A8FEF7C8FD00BF2C480838006802
:102F000040F001002949083908600846006800F0CF
:102F10000100009000BF00BF00BF0846006840F0FD
:102F2000020008600846006800F00200009000BF40
:102F300000BF00BF0846006840F004000860084673
:102F4000006800F00400009000BF00BF48F20E705F
:102F500011900220129000201390032014900B2057
:102F6000159011A91248FEF725FA4FF63870119006
:102F700011A91048FEF71EFA40F6CF70119011A962
:102F80000D48FEF717FA0220FEF706FA00BF0748C1
:102F9000006840F40070054908600846006800F4C5
:102FA0000070009000BF00BF16B010BD2438024072
:102FB00000000240000402400008024070B50446D0
:102FC0000025FEF7DFFA054609E0FEF7DBFA401BB5
:102FD000B0F57A7F03D90120A063032070BD20687B
:102FE0008068C0F340100028EFD00020F6E7000012
:102FF0000EB5002000900190029016481649086016
:1030000000204860002114488160C1600161416175
:103010008161C16101624162012181620021C1625D
:103020004FF000714163C90081630021C163FEF765
:1030300017F808B1FDF726FF042000900120019049
:103040000020029069460448FDF71EFF08B1FDF715
:1030500019FF0EBD00240140E40000201CB5002033
:10306000009001900A480B4908600846FEF744F9B1
:1030700008B1FDF707FF002000900190002269468B
:103080000448FEF70DF908B1FDF7FCFE1CBD000079
:10309000007400403801002000B587B0142102A858
:1030A000FDF75DF800BF4548006840F00400434963
:1030B00008600846006800F00400019000BF00BFEF
:1030C00000BF0846006840F020000860084600681D
:1030D00000F02000019000BF00BF00BF084600685C
:1030E00040F0010008600846006800F0010001900F
:1030F00000BF00BF00BF0846006840F00200086043
:103100000846006800F00200019000BF00BF00BF49
:103110000846006840F0080008600846006800F0B3
:103120000800019000BF00BF4FF440500290002003
:1031300003900120049002A92148FEF73BF90220E8
:103140000290002003900120049002A91D48FEF780
:1031500031F90120029000200390049002A91A483E
:10316000FEF728F91020029003200390002004901D
:1031700002A91548FEF71EF90420029000200390D2
:103180000120049002A91148FEF714F94FF4C05031
:103190000290002003900120049002A90A48FEF743
:1031A00009F904200290002003900120049002A954
:1031B0000748FEF7FFF807B000BD00001C380240CA
:1031C00000080240001402400000024000040240D7
:1031D000000C024010B50F480F49086000204860FD
:1031E0004FF470110C4881600C21C16040210161D5
:1031F000002141618161C1614021016200210163BF
:1032000081624FF48041C162FEF72EFA08B1FDF7EA
:1032100039FE10BD002400404C01002000B587B0ED
:1032200000200390049005900690019002904FF0CA
:103230008040124908600020486000210F488160EA
:10324000C1600161FFF74BFC08B1FDF71BFE4FF4B5
:103250008050039003A90948FFF7C2FC08B1FDF7AD
:1032600011FE00200190029001A90448FFF706FC1E
:1032700008B1FDF707FE07B000BD0000880100207F
:1032800000B587B00020039004900590069001904F
:10329000029012481249086000204860002110483E
:1032A0008160C1600161FFF71AFC08B1FDF7EAFD1A
:1032B0004FF48050039003A90948FFF791FC08B12F
:1032C000FDF7E0FD00200190029001A90448FFF7FE
:1032D000D5FB08B1FDF7D6FD07B000BD00040040E6
:1032E000C001002000B587B0002003900490059035
:1032F0000690019002901248124908600020486030
:10330000002110488160C1600161FFF7E8FB08B14E
:10331000FDF7B8FD4FF48050039003A90948FFF76B
:103320005FFC08B1FDF7AEFD00200190029001A9FD
:103330000448FFF7A3FB08B1FDF7A4FD07B000BDEB
:1033400000080040F80100207047000010B50B484D
:103350000B4908604FF4165048600021084881600E
:10336000C16001610C21416100218161C161FFF7F0
:10337000D0FC08B1FDF786FD10BD0000003801400B
:103380003002002000BFFEE77047000002480068DE
:10339000C0F30220704700000CED00E010B50028DB
:1033A00007DA0A07140E054A00F00F031B1FD45456
:1033B00003E00A07130E024A135410BD18ED00E093
:1033C00000E400E07047000018B502460023002129
:1033D0002548006800F0F00050BB23481C3000680E
:1033E00000F0805020B12148006800F4C05318E07C
:1033F00000BF1D481C30006840F080501A4C1C343F
:1034000020602046006800F08050009000BF00BFA0
:103410001648006800F4C0532046006820F0805031
:103420002060B3F5C05F03D1B2F5404F00D1012158
:1034300000BF012905D10E48006840F004000C4C83
:1034400020600B48006820F001000843084C206011
:1034500000BF2046006800F00100884201D0012032
:1034600018BD0020FCE70000083802400070004052
:10347000003C0240704710B5FEF78AF810BD00000E
:1034800000B595B0342108A8FCF769FE142103A803
:10349000FCF765FE00200090019002901C48006837
:1034A00020F4C05040F40060194908600A200890D8
:1034B00001200B9010200C9001200D900220119003
:1034C00000211291810413918105149108A8FEF73F
:1034D000DDFD08B1FDF7D6FC0F200390032004901A
:1034E0000020059006900790012103A8FEF7CEFB6F
:1034F00008B1FDF7C7FC0220009000040290684666
:10350000FEF7C2FA08B1FDF7BDFC15B000BD000022
:10351000007000401448006840F480701249086050
:10352000114808300068114908400F490831086007
:103530000D4800680E4908400B49086008460068BD
:1035400020F48020086008480830006820F47D00DE
:103550000549083108600020091D08604FF000602F
:103560000449086070470000003802400CC0FF8822
:10357000FEFFFEEE08ED00E00F48006800F00200DC
:10358000C0B100200C4908600C48006814280ADA11
:103590000B480A490968405C0A4908600748006806
:1035A000401C0649086005480068132802D1002025
:1035B00002490860704700001004004064000020C9
:1035C00068000020107400400DE000200A490860E7
:1035D0000949143908608806006820F0010089064E
:1035E00008600020086104481438006800F00200F8
:1035F0000028EAD170470000240800400022026839
:10360000B0F1804F05D0144B984202D0134B984232
:1036100003D122F070024B681A43B0F1804F0ED0F4
:103620000D4B98420BD00D4B984208D00C4B984252
:1036300005D00C4B984202D00B4B984203D122F498
:103640004072CB681A4302608B68C3620B68836266
:10365000012343617047000000040040000800405F
:1036600000080140000C01400010014030B50C463C
:103670000021816821F47F4142EA03252543294343
:10368000816030BD0A460021816821F0700142F05E
:10369000070319438160704730B50B46144600217B
:1036A0000022026A056A25F001050562816921F0A0
:1036B000F00141EA041122F00A021A438161026218
:1036C00030BD30B50B46144600210022056A25F0B6
:1036D000100505628169026A21F4704141EA0431F2
:1036E00022F0A00242EA03128161026230BD0000B2
:1036F0002DE9F041044600252068006920F440507F
:10370000E1680843216808612169A068084361698C
:103710000843E16940EA01052068C06849F20C618C
:10372000884328432168C8602068406920F44070BD
:10373000A169084321684861E069B0F5004F7CD178
:10374000C049206888425DD1FEF730FC00EBC00123
:1037500001EB001061684900B0FBF1F06421B0FB9F
:10376000F1F00601FEF722FC00EBC00101EB0010B6
:1037700061684900B0FBF1F7FEF718FC00EBC001EF
:1037800001EB001061684900B0FBF1F06421B0FB6F
:10379000F1F000EBC00101EB0010A7EB800032213B
:1037A00001EBC0006421B0FBF1F000F0F80006EB83
:1037B0004006FEF7FBFB00EBC00101EB0010616867
:1037C0004900B0FBF1F7FEF7F1FB00EBC00101EBA4
:1037D000001061684900B0FBF1F06421B0FBF1F02A
:1037E00000EBC00101EB0010A7EB8000322101EBE0
:1037F000C0006421B0FBF1F000F007003044216804
:1038000088601CE1FEF7BCFB00EBC00101EB00107F
:1038100061684900B0FBF1F06421B0FBF1F00601F2
:10382000FEF7AEFB00EBC00101EB00106168490040
:10383000B0FBF1F7FEF7A4FB00E043E000EBC001B2
:1038400001EB001061684900B0FBF1F06421B0FBAE
:10385000F1F000EBC00101EB0010A7EB800032217A
:1038600001EBC0006421B0FBF1F000F0F80006EBC2
:103870004006FEF785FB00EBC00101EB001061681C
:103880004900B0FBF1F7FEF77BFB00EBC00101EB59
:10389000001061684900B0FBF1F06421B0FBF1F069
:1038A00000EBC00101EB0010A7EB8000322101EB1F
:1038B000C0006421B0FBF1F000F007003044216843
:1038C0008860BCE05F49206888425CD1FEF76EFBEF
:1038D00000EBC00101EB001061688900B0FBF1F65C
:1038E000FEF764FB00EBC00101EB0010616889008A
:1038F000B0FBF1F06421B0FBF1F000EBC00101EB93
:103900000010A6EB8000322101EB00106421B0FB17
:10391000F1F000F0F006FEF749FB00EBC00101EB0F
:10392000001061688900B0FBF1F06421B0FBF1F098
:1039300006EB0016FEF73AFB00EBC00101EB0010AE
:1039400061688900B0FBF1F7FEF730FB00EBC001C6
:1039500001EB001061688900B0FBF1F06421B0FB5D
:10396000F1F000EBC00101EB0010A7EB8000322169
:1039700001EB00106421B0FBF1F000F00F003044C7
:10398000216888605BE0FEF7FBFA00EBC00101EB09
:10399000001061688900B0FBF1F6FEF7F1FA00EB68
:1039A000C00101EB001061688900B0FBF1F06421F7
:1039B000B0FBF1F000EBC00101EB0010A6EB8000C2
:1039C000322101EB00106421B0FBF1F000F0F006B1
:1039D000FEF7D6FA00EBC00101EB00106168890028
:1039E000B0FBF1F06421B0FBF1F006EB0016FEF73E
:1039F000C7FA00EBC00101EB001061688900B0FB61
:103A0000F1F7FEF7BDFA00EBC00101EB00106168B1
:103A10008900B0FBF1F06421B0FBF1F000EBC001D4
:103A200001EB0010A7EB8000322101EB00106421B4
:103A3000B0FBF1F000F00F00304421688860BDE871
:103A4000F08100000038014000BFFEE702E008C836
:103A5000121F08C1002AFAD170477047002001E008
:103A600001C1121F002AFBD170470000012001494B
:103A7000086070470074004000200F4988600F48BC
:103A8000006840F001000D4908600C480C300068E7
:103A900020F0010009490C310860081F006840F05F
:103AA0000100091F08600648006840F040004FF020
:103AB000E021C1F80001704700000140000401400E
:103AC00000E100E04B48006820F00300494908602D
:103AD0000846006820F4806008600846006A40F4E8
:103AE000801008620846006A40F400100862084628
:103AF000006840F4407008600846006820F4400008
:103B000008600846C06840F48000C8600846006845
:103B100020F0407008600846C06840F08070C860BF
:103B20003548006820F030003349086032480C30D6
:103B3000006840F0100030490C3108602E480068E1
:103B400040F400402C4908600846006820F480409A
:103B500008600846006840F40050086008460068A5
:103B600020F48050086024482030006820F07F4016
:103B70002149203108600846006840F0EE400860A6
:103B80001E48006820F040701C4908601B480C303B
:103B9000006840F0807019490C31086017480068CF
:103BA00020F040601549086014480C30006840F06F
:103BB000806012490C3108601148006820F0300024
:103BC0000F4908600E480C30006840F010000C49A6
:103BD0000C3108600B48006820F00C0009490860AF
:103BE00008480C30006840F0040006490C310860B9
:103BF000704700000000024000040240000802403C
:103C0000000C0240001402400E4800680E49086093
:103C10000E4800680E4908600E4800680E490860AA
:103C20000E4800680E4908600E4800680E4908609A
:103C30000E4800680E4908600E4800680E4908608A
:103C400070470000980000207C0000209C000020AD
:103C500080000020A000002084000020A40000209C
:103C600088000020A80000208C000020AC0000206C
:103C700090000020B0000020940000200E48006852
:103C80000E4908600E4800680E4908600E4800683A
:103C90000E4908600E4800680E4908600E4800682A
:103CA0000E4908600E4800680E4908600E4800681A
:103CB0000E49086070470000B40000207C0000201E
:103CC000B800002080000020BC00002084000020FC
:103CD000C000002088000020C40000208C000020CC
:103CE000C800002090000020CC000020940000209C
:103CF0008020C105086000204860886040F23F10C5
:103D00008862002048624FF4BF70C862BF204863D9
:103D10000020C8606820886101200862800740692F
:103D200040F00100486100200861704700201949F7
:103D30000860091D0860091D086040F23F10154920
:103D4000283108600020091F08604FF6FF701149F4
:103D50002C31086001200F490C31086068200D49A2
:103D60001831086001200B492031086009481430DF
:103D7000006840F001000749143108600020091F65
:103D800008600548006840F000504FF0E021C1F89D
:103D9000000170470004004000E100E000201949E4
:103DA0000860091D0860091D086040F23F101549B0
:103DB000283108600020091F08604FF6FF70114984
:103DC0002C31086002200F490C31086000200D4999
:103DD000183108600B49203108600A481430006827
:103DE00040F001000749143108600020091F0860F5
:103DF0000548006840F080404FF0E021C1F8000124
:103E0000704700000008004000E100E00C200F496E
:103E100008600020091D086040F6A7500B49091FE3
:103E20000860081D006840F40050091D086008463D
:103E3000006840F0200008600548006840F020005D
:103E40004FF0E021C1F80401704700000C38014038
:103E500004E100E00022094B1A6050F821201423ED
:103E600092FBF3F2054B10331A60044A243A1268AD
:103E700042F00102014B243B1A60704724080040C5
:103E80002DE9F04104460D4600210E460F4609E09B
:103E900000F02CF80022084B30463946FCF76AF94E
:103EA00006460F4632463B4620462946FCF722FA94
:103EB000EED3BDE8F08100000000F03F70B50024B3
:103EC000254607E00022074B20462946FCF752F919
:103ED00004460D460022044B20462946FCF7F2F921
:103EE000F0D370BD0000F03F0040DF40002007E04D
:103EF000002100E0491C4FF6FF729142FADB401CA2
:103F00003228F5DB7047000010B50023114C236008
:103F100050F82230142493FBF4F30E4C0834236041
:103F200051F82230142493FBF4F30A4C103423602C
:103F3000084B1B1F1B6843F00103064C241F236022
:103F4000044B243B1B6843F00103024C243C2360D8
:103F500010BD00002404004000B5F3B0E64800693D
:103F600000F40060002839D1E4A0FCF7FFFD1C221A
:103F7000E4496CA8FCF7DAF81C22E2491C3165A878
:103F8000FCF7D4F81C22DF4938315EA8FCF7CEF8E4
:103F90000020DD490860DD49086013E0DB48016866
:103FA00065A8FFF757FFD9485EA902686CA8FFF71C
:103FB000ABFF0020D649FFF781FFD4480068401CC2
:103FC000D2490860D14800680728E7DB0020D149C2
:103FD0000860D1490860D14908608AE1C648006993
:103FE00000F4805000283AD1CDA0FCF7BFFD542248
:103FF000C44954315EA8FCF799F85422C149A8314C
:1040000049A8FCF793F85422BE49FC3134A8FCF7C8
:104010008DF80020BC490860BC49086013E0BB482B
:10402000016849A8FFF716FFB84834A902685EA8DE
:10403000FFF76AFF0020B649FFF740FFB34800686A
:10404000401CB2490860B14800681528E7DB002031
:10405000B0490860B0490860B049086049E1B24819
:10406000006800F0040000283BD128220121AFA005
:10407000FCF7C2FD3822B34965A8FCF757F838228F
:10408000B049383157A8FCF751F83822AD497031A2
:1040900049A8FCF74BF800209B4908609B49086041
:1040A00013E09A48016857A8FFF7D4FE974849A93A
:1040B000026865A8FFF728FF00209549FFF7FEFE7C
:1040C00092480068401C91490860904800680E289A
:1040D000E7DB00208F4908608F4908608F4908603E
:1040E00007E19948006800F4805000283BD128225D
:1040F000012196A0FCF780FD68229249A83159A8B9
:10410000FCF714F8682296493FA8FCF70FF86822DC
:104110009349683125A8FCF709F800207A4908601E
:104120007A49086013E0794825A9026859A8FFF781
:10413000EBFE764801683FA8FFF78CFE002074492B
:10414000FFF7BCFE71480068401C704908606F486A
:1041500000681A28E7DB00206E4908606E49086095
:104160006E490860C5E07848006800F400500028F7
:1041700040D17CA0FCF7FAFC7949D031D1E900208C
:104180008968709272917190754ADC32D2E90010A0
:1041900092686F926D916E907149E831D1E900207B
:1041A00089686A926C916B90002057490860574962
:1041B000086013E0554801686DA8FFF74BFE5348AF
:1041C0006AA9026870A8FFF79FFE00205049FFF718
:1041D00075FE4E480068401C4C4908604B4800681A
:1041E0000328E7DB00204B4908604B4908604B4936
:1041F00008607EE05D48006800F00400002839D1C6
:104200005BA0FCF7B3FC98225549F4314DA8FBF7AD
:104210008DFF9822594927A8FBF788FF9822574914
:10422000983101A8FBF782FF002037490860374921
:10423000086013E03548016827A8FFF70BFE3348F4
:1042400001A902684DA8FFF75FFE00204C49FFF767
:1042500035FE2E480068401C2C4908602B48006839
:104260002628E7DB00202B4908602B4908602B49F2
:1042700008603EE04348006800F00200C8BB39A077
:10428000FCF774FC404A07CA70AB07C33E4A0C32C5
:1042900007CA6DAB07C33C4A1832D2E900109268D6
:1042A0006C926A916B90002017490860174908606A
:1042B00013E0164801686DA8FFF7CCFD13486AA902
:1042C000026870A8FFF720FE00201149FFF7F6FDF5
:1042D0000E480068401C0D4908600C48006803281F
:1042E000E7DB00200B4908600B4908600B490860B8
:1042F00000BF73B000BD00000000024020455343E2
:10430000414C4100C049000810080040D400002082
:10431000004055406400002000040040107400403C
:104320002054455452495300100402402048494D3E
:104330004E4F204445204C4120414C454752494175
:1043400000000000104B00081008024020504952A5
:10435000415441532044454C204341524942450079
:10436000204C0008204E414441000000100C024047
:10437000205354415220574152530000AC4D000885
:104380000000144010140240DC4E000810B5FEA0DE
:10439000FCF7ECFBFE480068FE490860FE48006838
:1043A000FB490860FD48006900F40060FA490860B4
:1043B000F8480068B0F5006F1ED1F5480068D8B91C
:1043C00008460068C0B9F6480068142190FBF1F077
:1043D000F4490860F3482C38006840F00100F149C6
:1043E0002C3908600120EF491C390860FCF7ACF853
:1043F000EDA0FCF7BBFB1EE0E6480068D8B9E44836
:104400000068B0F5006F16D1E3480068B0F5006FA2
:1044100011D10020E3491C390860E2482C380068BB
:1044200020F00100DF492C3908600020DD490839FF
:104430000860FCF789F8DD480068DD490860DD4860
:104440000068DA490860D548006900F48050D9490D
:104450000860D7480068B0F5805F1ED1D348006877
:10446000D8B908460068C0B9D3480068142190FB49
:10447000F1F0CC490860CB482C38006840F00100CE
:10448000C8492C3908600120C6491C390860FCF76E
:104490005BF8CAA0FCF76AFB1EE0C5480068D8B903
:1044A000C2480068B0F5805F16D1C2480068B0F518
:1044B000805F11D10020BB491C390860B9482C38F5
:1044C000006820F00100B7492C3908600020B54988
:1044D00008390860FCF738F8B9480068B94908603D
:1044E000B9480068B6490860B848006800F00400A0
:1044F000B5490860B348006804281ED1B048006878
:10450000D8B908460068C0B9B1480068142190FBCA
:10451000F1F0A4490860A3482C38006840F001007D
:10452000A0492C39086001209E491C390860FCF71D
:104530000BF8A8A0FCF71AFB1CE0A2480068C8B959
:104540009F480068042815D19F480068042811D1AD
:10455000002094491C39086092482C38006820F0EB
:10456000010090492C39086000208E490839086004
:10457000FBF7EAFF98480068984908609848006887
:10458000954908609748006800F480509449086095
:1045900092480068B0F5805F1ED18F480068D8B996
:1045A00008460068C0B990480068142190FBF1F0FB
:1045B0007C4908607B482C38006840F0010079494C
:1045C0002C390860012077491C390860FBF7BCFFD3
:1045D00086A0FCF7CBFA1EE080480068D8B97E4878
:1045E0000068B0F5805F16D17D480068B0F5805F47
:1045F00011D100206B491C3908606A482C380068CA
:1046000020F0010067492C3908600020654908390D
:104610000860FBF799FF764800687649086076489D
:104620000068734908606F48006800F400507249E0
:10463000086070480068B0F5005F1ED16C480068E3
:10464000D8B908460068C0B96C480068142190FBCE
:10465000F1F05449086053482C38006840F00100DC
:1046600050492C39086001204E491C390860FBF77D
:104670006BFF63A0FCF77AFA1EE05E480068D8B9C9
:104680005B480068B0F5005F16D15B480068B0F584
:10469000005F11D1002043491C39086041482C3883
:1046A000006820F001003F492C39086000203D4996
:1046B00008390860FBF748FF534800685349086011
:1046C00053480068504908605248006800F00400F0
:1046D0004F4908604D48006804281ED14A480068C8
:1046E000D8B908460068C0B94B480068142190FB4F
:1046F000F1F02C4908602B482C38006840F001008C
:1047000028492C390860012026491C390860FBF72C
:104710001BFF42A0FCF72AFA1CE03C480068C8B91D
:1047200039480068042815D139480068042811D197
:1047300000201C491C3908601A482C38006820F0F9
:10474000010018492C390860002016490839086012
:10475000FBF7FAFE324800683249086032480068C8
:104760002F4908603148006800F002002E490860B7
:104770002C480068022875D12948006810B90846FD
:10478000006855E06EE00000205049414E4F0000A7
:10479000040000200000002008000020000002406B
:1047A0007C0000202C04004020444F00100000201A
:1047B0000C00002014000020800000202052450042
:1047C0001C000020180000202000002010040240DF
:1047D00084000020204D49002800002024000020F3
:1047E0002C000020100802408800002020464100D4
:1047F0003400002030000020380000208C00002011
:1048000020534F4C00000000400000203C000020DE
:1048100044000020100C024090000020204C410079
:104820004C000020480000205000002010140240DE
:10483000C0B91B480068142190FBF1F019490860C9
:1048400018482C38006840F0010016492C390860DF
:10485000012014491C390860FBF776FE12A0FCF712
:1048600085F91CE011480068C8B9114800680228A1
:1048700015D110480068022811D1002009491C39BF
:10488000086008482C38006820F0010005492C39E0
:1048900008600020034908390860FBF755FE10BD89
:1048A000940000202C0400402053490048000020C0
:1048B0004C00002050000020FCF772FEFEF7E0FDE7
:1048C000FEF7EAFBFEF794FBFEF784FCFEF73CFDE7
:1048D000FEF7C4FBFEF7A2FCFEF704FDFEF7D0FCDA
:1048E000FEF734FDFFF7EEF8FFF702FAFFF71EFAC6
:1048F000FFF754FAFFF7C0F8FFF7B8F8FFF786FAAA
:10490000012225492548FEF781FAFCF74BF90020E2
:10491000FBF7A8FDFBF718FE21A0FCF727F9002004
:104920002149FFF7ADFA35E0FBF70EFE1FA0FCF7BB
:104930001DF900201C49FFF7A3FAFBF705FE28E04C
:10494000FFF79CF91A48006810B9FFF71FFD08E04F
:1049500017480068012804D116A0FCF707F9FFF7F3
:10496000FBFA0D480078332813D134200A49087027
:10497000FFF74AF90E48006810B9FFF707FD08E095
:104980000B480068012804D10AA0FCF7EFF8FFF7F4
:10499000E3FAD5E7C8E70000D0000020300200208D
:1049A00020524541445900000000F03F20474F008D
:1049B00054000020204D454C4F4449410000000068
:1049C0007E010000540100002F0100001E010000C4
:1049D000FF000000E3000000CA000000900100009A
:1049E0009001000090010000900100009001000083
:1049F0009001000090010000BF000000AA0000002C
:104A0000980000008F00000080000000720000008D
:104A100065000000E3000000E30000002F0100003B
:104A20001E010000FF0000001E0100002F01000019
:104A300054010000540100001E010000E3000000CA
:104A4000FF0000001E0100002F0100002F010000E8
:104A50001E010000FF000000E30000001E01000036
:104A60005401000054010000F4010000F4010000B2
:104A7000FA000000FA000000F4010000FA00000053
:104A8000FA000000F4010000FA000000FA00000043
:104A9000F4010000FA000000FA000000F401000038
:104AA000FA000000FA000000F4010000F401000028
:104AB000F4010000F4010000F401000072000000A5
:104AC00072000000980000008F00000080000000CD
:104AD0008F00000098000000AA000000AA0000005B
:104AE0008F00000072000000800000008F000000B6
:104AF00098000000980000008F0000008000000077
:104B0000720000008F000000AA000000AA00000050
:104B10002F0100002F0100001E010000FF00000017
:104B2000FF0000001E0100002F01000054010000E2
:104B30007E0100007E010000540100002F010000F2
:104B40002F01000054010000BC020000BC02000064
:104B5000BC020000BC020000BC020000BC0200005D
:104B6000BC020000BC020000BC020000BC0200004D
:104B7000BC020000BC020000BC020000BC0200003D
:104B800098000000980000008F00000080000000E6
:104B9000800000008F00000098000000AA000000C4
:104BA000BF000000BF000000AA0000009800000045
:104BB00098000000AA000000540100002F0100002E
:104BC0001E010000FF000000E3000000FF000000E5
:104BD0001E0100002F0100001E010000FF00000068
:104BE000E3000000FF0000001E010000FF000000C5
:104BF000E3000000FF0000001E0100002F01000084
:104C00001E0100002F010000540100002F010000D0
:104C10007E010000540100000000000000000000C0
:104C2000F4010000F4010000EE020000FA000000B0
:104C3000F4010000F4010000F4010000F4010000A0
:104C4000F4010000F4010000F4010000E80300009A
:104C5000FA000000FA000000EE020000FA00000076
:104C6000F4010000F4010000F4010000F401000070
:104C7000EE020000FA000000F4010000E80300006A
:104C80000000000000000000AA00000098000000E2
:104C90008F00000080000000720000008000000013
:104CA0008F000000980000008F00000080000000CE
:104CB00072000000800000008F00000080000000F3
:104CC00072000000800000008F00000098000000CB
:104CD0008F00000098000000AA000000980000006B
:104CE000BF000000AA00000000000000000000005B
:104CF0007E010000540100002F010000E8030000C5
:104D0000E8030000E8030000BF000000AA00000064
:104D100098000000540100005401000054010000FC
:104D2000FF000000540100007E010000CA000000E6
:104D3000E3000000FF000000540100007E010000BD
:104D4000CA000000E3000000FF0000005401000062
:104D50007E010000CA0000007E010000E3000000A8
:104D6000540100005401000054010000FF00000045
:104D7000540100007E010000CA000000E3000000B2
:104D8000FF000000540100007E010000CA00000086
:104D9000E3000000FF000000540100007E0100005D
:104DA000CA0000007E010000E3000000FA000000DD
:104DB000FA000000FA000000E8030000E803000029
:104DC000EE020000FA000000FA000000E803000014
:104DD000EE020000FA000000FA000000FA000000F5
:104DE000E8030000F4010000E8030000FA000000FE
:104DF000E8030000FA000000FA000000FA000000DA
:104E0000E8030000FA000000FA000000FA000000C9
:104E1000E8030000FA000000FA000000FA000000B9
:104E2000E8030000FA000000E8030000FA000000B8
:104E3000FA000000FA000000E8030000FA00000099
:104E4000E8030000AA000000AA000000AA00000079
:104E500080000000AA000000BF0000006500000004
:104E60007200000080000000AA000000BF000000E7
:104E7000650000007200000080000000AA00000031
:104E8000BF00000065000000BF00000072000000CD
:104E9000AA000000AA000000AA0000008000000094
:104EA000AA000000BF0000006500000072000000C2
:104EB00080000000AA000000BF00000065000000A4
:104EC0007200000080000000AA000000AA0000009C
:104ED00065000000AA000000720000007E010000D2
:104EE000540100002F010000E8030000E803000067
:104EF000E8030000BF000000AA00000098000000C6
:104F000000FE1467001D1447009D009C003F00FA3E
:104F10001400005341980019485A095A005F00FCD8
:104F2000015F01FC00AF1404005BC018815AC90086
:104F30005800C005005F004200F5006700EA00AFBE
:104F400000BF004600FF00EF030406080C10182005
:104F50003000000000000000000102030406070802
:104F60000900000000010203040000008C4F00084B
:104F700000000020E40000004C3A000870500008D7
:104F8000E4000020DC0500005C3A0008000000009E
:104F90000000000000000000000000000000000011
:104FA0000000000000000000000000000000000001
:104FB00000000000000000000000000000000000F1
:104FC00000000000000000000000000000000000E1
:104FD00000000000000000000000000000000000D1
:104FE00000000000000000000000000013000000AE
:104FF000000000007FA7CAE7F9FFF9E7CAA77F58BA
:1050000034180500051733570000000000000000A9
:105010000000000000000000000000000000000090
:1050200000000000FC020000B70200005F02000068
:105030003D020000FE010000C701000095010000D4
:105040007E010000550100002F0100001E0100003C
:10505000FF000000E3000000CA0000003400000070
:1050600000000000000400000000000068FF1F00B6
:04000005080000F5FA
:00000001FF
